:020000040800F2
:1000000070070020C94000088D3F00088F3F00089E
:1000100000000000000000000000000000000000E0
:10002000000000000000000000000000913F0008F8
:100030000000000000000000933F0008953F00080A
:10004000BB1000085B110008D711000887140008D6
:10005000DB1400085B1800089F180008A3180008AC
:100060009321000897210008032800087729000839
:10007000A13F000873400008B7400008F3400008A3
:10008000F5400008F7400008F9400008FB40000870
:10009000FD400008FF40000801410008034100083E
:1000A000054100080741000809410008AB3F00086E
:1000B0000B4100080D4100080F41000811410008E4
:1000C000F0B5A5B004000D002A9E00BF73A003C8C0
:1000D0006F4603C7089506A83B214654002011909F
:1000E00004940392029313E0039C3500049F21784B
:1000F0000898B8470890002800D1B5E01198401C36
:100100001190641C6D1EF2D104970398801903901E
:1001100003980078252809D100260B960C960D9699
:100120000E960F9610960021039C0FE00021C94304
:100130006A46039800F0F6FF060001D1119895E099
:10014000D2D50126E1E7012008430100641C207894
:100150002028F8D023280CD02B2804D02D2804D018
:1001600030280AD084E00220EEE70A00042111437F
:10017000ECE7080008210143E8E708001021FAE74E
:1001800013960AE0139A444B9A4205DA93009A18A0
:100190005200101830381390641C20780200303A56
:1001A0000A2AEFD320782E2803D00020C0431290D3
:1001B00027E0641C22782A2A0AD102980068029A51
:1001C00010600268001D029B18601292641C18E007
:1001D0002D2A01D1641C00E0002212960CE0002AB6
:1001E00009D1129B2C4DAB4205DA9D00EB185B0048
:1001F000181830381290641C20780300303B0A2B0A
:10020000EDD306AD2987277826A0390000F09AFFA4
:10021000002801D0641C00E000273A202F54285CFD
:10022000682804D12178682901D1622005E06C2872
:1002300006D120786C2803D171203A216854641CBF
:1002400016A80A902378029A06A9049800F068F884
:10025000611C0391002807D116AA06A9049800F092
:10026000F9F9002800D453E70020C04325B0F0BDC1
:100270002A2885D10298026802601068121D029B2C
:100280001A601390002804D5424213920A000421F8
:100290001143641C86E70000CBCCCC0C00000000AE
:1002A00000000000686A6C747A4C00000B00622841
:1002B0001CD068280DD06A2803D06C2823D0712860
:1002C00021D11A68D21D072082431A6003CA1A601E
:1002D0007047002A19681960086803D0091D196061
:1002E00000B217E0091D196080B217E0002A1968F2
:1002F0001960086803D0091D196040B20AE0091DA1
:100300001960C0B20AE0002A19681960086803D0B1
:10031000091D1960C1177047091D19600021704738
:100320007CB50C0011001E0025693200253A00D171
:100330004AE11C3A00D182E0121F022A00D87EE076
:100340000E3A00D104E1521F58D0093A77D0921EDC
:1003500016D0521E34D0521E022A70D9121F2FD02E
:10036000521F00D194E0521E48D0521E00D1DEE050
:10037000D21E00D1FAE0921E40D0D21E3ED029E11A
:100380003A22A25C6C2A09D06069421C62610A6848
:100390000A601368121D0A602B5425E10A680A607E
:1003A0001368121D0A60009300210191C943216363
:1003B0006A46210000F0D0F9002800D414E100E1E1
:1003C00001223A20205CFFF771FF03C4083C00299A
:1003D00004DA6069411C61612D210DE0208F8107E5
:1003E00004D56069411C61612B2105E0C00721D55E
:1003F0006069411C6161202129541BE000223A20E0
:10040000205CFFF753FF03C4083C3820205C000742
:1004100010D503CC083C002901D100280AD02020A7
:100420003043782806D1606930212954401C411C92
:1004300061612E5460692818E060310084E008682A
:10044000C01D0722904308600CC808600CC4083C1B
:1004500003CC083CC80F04D06069411C61612D21A8
:100460000DE0208F810704D56069411C61612B215B
:1004700005E0C00704D56069411C61612021295451
:1004800060692818E0603100200000F081FAABE0DC
:100490003B20205C002803D00024E44353A074E0F8
:1004A0003A20205C622808D0682823D06A2812D01D
:1004B0006C282ED071280ED02BE00A680A601068D4
:1004C000121D0A60002803D10024E4434DA05CE023
:1004D000E16A017088E0086808600268001D086031
:1004E000002A03D10024E44346A04EE0E06AC1178D
:1004F00003C279E00A680A601068121D0A600028C9
:1005000004D10024E44300BF3EA03EE0E16A018044
:100510006AE00A680A601068121D0A60002803D1A8
:100520000024E44337A030E0E16A01605CE0086841
:1005300008600268001D08600020C04300211040D0
:1005400003C4083CE5607821200000F069F94BE025
:100550006C223A23E2540B680B601A681B1D0B6077
:10056000002A29D10024E4432CA00EE03A22A25C08
:100570006C2AF0D0086808600568001D0860E56016
:10058000002D06D10024E4432BA000F0E7FD201A43
:1005900076BD266B002E03D5280000F003FE09E08F
:1005A00032000021280000F005FE002801D0401B89
:1005B00000E03000A06117E0210000F0CDF8002835
:1005C00012D50020C04376BD6069411C61612521C0
:1005D000295409E06169481C606125226A54310090
:1005E00002D0411C61612E54002076BD7072696E8C
:1005F00074665F733A20256E20646973616C6C6F5A
:10060000776564007072696E74663A206261642076
:10061000256E20617267756D656E74007072696E0B
:1006200074665F733A2062616420256C7320617286
:1006300067756D656E7400007072696E74665F73C5
:100640003A2062616420257320617267756D656E62
:1006500074000000F8B506000C001700606B6169BB
:10066000401A216A401AA169401A616A401AE16978
:10067000401AA16A401A00903820205C40070ED42E
:10068000009800280BDD05462021A068B047A06037
:1006900000285DD0E06A401CE0626D1EF4D13A0093
:1006A00063692100300000F0EDFC002850D1256A7C
:1006B000002D0ADD3021A068B047A060002847D097
:1006C000E06A401CE0626D1EF4D1A369E26821007B
:1006D000300000F0D7FC00283AD1656A002D0ADD11
:1006E0003021A068B047A060002831D0E06A401CEB
:1006F000E0626D1EF4D1E369E068A169421821004F
:10070000300000F0BFFC002822D1A56A002D0ADDD0
:100710003021A068B047A060002819D0E06A401CD2
:10072000E0626D1EF4D13820205C40070ED50098A1
:1007300000280BDD05462021A068B047A0600028F6
:1007400006D0E06A401CE0626D1EF4D10020F2BDCC
:100750000020C043F2BD0000F8B5A6B004000D00B3
:1007600016002F6B002F00D5864F00F02FFD696B10
:100770000A1800BF28A003C803AB03C3812A47D2CD
:100780000020059400950290002F30DD03AA316807
:1007900001A800F0CCFC05003AD43068002801D153
:1007A0006D1E35D4AF4222DB009840694019812884
:1007B0000CD300240098446306AA00990598FFF71B
:1007C00049FF0290002812D40098446100984469BF
:1007D00006A82A0001A9001900F0FEFC6019009982
:1007E00048613068002802D0361D7F1BCCE7059B8E
:1007F000009C0298002804D106AA21001800FFF7E7
:1008000029FF002802D100216161616327B0F0BD9A
:100810000020C043FAE700000000000000000000D4
:10082000F2B586B0040025690A466F2A01D108276F
:1008300007E0084620210143782901D00A2700E07B
:1008400010273C2603CC083C04AB03C3642A01D028
:10085000692A09D1002907DA04A803C80022002365
:10086000121A8B4104A80CC004A803C8002920D187
:1008700000281ED1206B00281BD1082F4ED1382014
:10088000205C00074AD53B26302046E000290ED5E3
:100890003821615C14220A40102A08D1616B626918
:1008A000891A226A891A081A002800DD206207B016
:1008B000F0BD0294009504A830C8761E0196200071
:1008C00029003A00FB1700F0B5FC3032D0B23A28CC
:1008D00003DB6846007E51381218009882552000CC
:1008E00029003A00FB1700F0A5FC04000D0001D11F
:1008F000002C05D00298C068009989198842DCD381
:10090000029C009D082F09D13820205C000705D5E6
:10091000A85D302802D0761E3020A8553C20801BD0
:10092000A061A919E160216B8842AFDA081A206240
:10093000208F154901402187B9E7F8B50026134FEC
:1009400004000D00009216E001200099084007D035
:1009500032003B002000290000F0A1FC04000D0043
:100960000098401000903000390032003B0000F049
:1009700096FC06000F0000980028E5D12000290011
:10098000F4BD0000FFFFFF7FEFFF000000002440E8
:10099000F3B593B005AA03C802AB03C314A800784B
:1009A00020210143019161290BD01398006B00288D
:1009B00001D5062003E004D1672902D10120139953
:1009C0000863139803C84C006415641C13D10B030F
:1009D00011D003201399886114A8007861381A286F
:1009E00004D255497944FF31513116E053497944D5
:1009F000FF314B3111E04C006415641C13D10B0323
:100A000011D103201399886114A8007861381A283D
:100A10001BD34B497944FF31293103221398C06815
:100A200000F0DAFBC9E110AB03C391A6C0CE10A859
:100A300003C8394080256D03A9420BD200230093DF
:100A400010AB30CB604069400EE03E497944FF3145
:100A50000B39E2E7080D884C2418009410A803C84D
:100A6000874D0D4085492943139B03C30198612895
:100A700013D11398C06830210170811C139BD96079
:100A800014A90978612901D1782100E05821417029
:100A900013984069801C13994861139830C8264008
:100AA0002F4005D1002E03D100206B4698807BE1BA
:100AB0000198612800D0A9E01398006B002801D5A7
:100AC000212000E0401C0190019F7F1C02A803C868
:100AD0000022002300F0A5FC02D280200006454041
:100AE0000098001F009069460A7505A8461C002F53
:100AF00000DC68E120002900002280235B0300F075
:100B0000A9FC00D95FE169004A0D11001C31002ADF
:100B10001AD0002918DDB74A914206DB10052900DA
:100B2000802212061140014312E0554A2A4008056E
:100B3000104305000EE000BF803500008035000046
:100B4000843500007C350000290080221206114007
:100B500000240D002000290000F096FC0290FF1FE9
:100B6000002F09DD00F0CAFC02000B002000290064
:100B700000F02BFD04000D00F01D0721029A04E097
:100B8000401E0F23134003701211002A01DD491E7D
:100B9000F6D5491E00D512E1401E00220270F8E78A
:100BA0000023040005AD2D1901E0401E6D1E641EDA
:100BB0002E789E42F9D00F2B04D14B1C1B5D5B1C81
:100BC000491C0B55002C04D505AA401C0099091D91
:100BD0000091431E11D4D41814A909782578303512
:100BE000EEB2392E02DD0E003A3EAD1925705B1EC5
:100BF000641E002BF2D514AB19701399096B0029F0
:100C000000D4CEE0411E139B1963CAE002A803C8BA
:100C10000022002300F005FC06D202A803C88022AF
:100C20001206514002AA03C200987349484373490F
:100C300000F058FD009007200099401A049005DD4F
:100C4000024602A803C8FFF778FE0AE042420020ED
:100C50006B49FFF772FE02000B0002A803C800F008
:100C60009BFD019A662A0DD1009A0A320BE000BF63
:100C7000FFFFFFFFFFFFFF7F02FCFFFF0000E03FE1
:100C8000FFFF0F800622139B1B6B9A18142A00DDAE
:100C9000142230236C46237505AB5C1C02E002A8CD
:100CA00003C8049A002A3CDD02AB03C3049202A8E5
:100CB00003C800F0FBFB0F90064608340425300003
:100CC0000A2100F012FD0F0030000A2100F0C6FDDD
:100CD00006003037601E077030000A2100F005FD65
:100CE0000F0030000A2100F0B9FD0600A41E3037C5
:100CF00027706D1EE3D1083404980838049000284A
:100D0000CDDD0F9800F0EAFB02000B0002A803C83B
:100D100000F05BFC00223B4B00F0C1FA02AA03C2C8
:100D2000C5E705A8401C211A05A8421C009802E04E
:100D3000491E401E521C1378302BF9D000900198A8
:100D4000662802D10098401C05E00198652801D171
:100D5000012000E00020139B1B6B1818814200DA71
:100D6000481E00281DD4884204DA115C352901DBB5
:100D7000392300E030230400511E0D1901E0401E0C
:100D80006D1E641E2E789E42F9D0392B02D1135D60
:100D90005B1C1355002C04D50A00401C0099491C0B
:100DA000009169468880009800B20090019B1BB2B8
:100DB00014A80178139800F027F815B0F0BDC61DEF
:100DC000002F00DD96E605A9481C331A05A8421C31
:100DD0000198834200DC1800002800D50DE79842F6
:100DE00000DBDDE64B1C1B5C072B00DCD8E60F2389
:100DF000D7E60000FF07000097750000A0860100FD
:100E00000000F03F84D79741F6B583B006000F008D
:100E10001C0000F091F96946406A00780870356B53
:100E2000002C03DC012400BFA3A004902020384341
:100E3000662803D10A9F3FB27F1C1AE0672800D0C2
:100E400085E00A9800B20321C943884200DA82E0B3
:100E5000A84200DB7FE00A9F3FB27F1C3820305C55
:100E6000000702D4AC4200DA250038B22D1A00D5B2
:100E70000025B169F06840183AB2002A26DC491C06
:100E800030220270002D03DC3820305C000704D5CE
:100E900068460078F2685054491CB16138B241424A
:100EA0008D4200DA6F423FB278427062ED19A5427E
:100EB00000DA2C0024B2F46122000499F068B369CE
:100EC000C01800F089F9281BB062C3E0944218DA18
:100ED0002200049900F080F9B0690019B0613FB2B6
:100EE000391B7162002D03DC3821715C090706D5BE
:100EF00069460978F2681154F069401CF061B562E6
:100F0000A8E0049900F068F938B2B1690918E41B47
:100F1000002D03DC3822B25C120704D56A46127831
:100F2000F3685A54491CB16121B28D4200DA2C0099
:100F300022B204990918F068B369C01800F04CF99E
:100F400024B2B0690019B061281B706282E0612F81
:100F500011D1702712E0AC4204DA3821715C090724
:100F600000D425006D1E00D50025672F01D165270F
:100F700004E0452702E0412F00D15027B069411C11
:100F8000B161049A1278F3681A540498401C0490D2
:100F9000002D03DC3820305C000718D5481CB061F8
:100FA0006A461278F3685A54002D10DD641E21B28F
:100FB0008D4200DA2C0022B20499F368181800F070
:100FC0000BF924B2B0690019B061281B7062F06897
:100FD000B169401807700A9909B2002904D42B217D
:100FE0004170801C049006E02D224270801C049009
:100FF00048426946088500246D460A9800B205E01B
:101000000A2100F06FFB2970641C6D1C00B20028DF
:10101000F6DC012C09DC20203843652805D130207E
:10102000049908700498401C0490002C28D13020AA
:10103000049908700498401C07E0641E6946095D25
:1010400030310170401C002CF7DCF168B26989185E
:10105000401AF0613820305C1421014010290DD174
:101060007069B1694018716A4018F1694018B16A35
:101070004018716B884201DA081A306205B0F0BD81
:101080000498E0E7F8B507000020002B12D00E000E
:1010900014001D002178B068B847B060002807D060
:1010A000F06A401CF0620020641C6D1E02D0F1E763
:1010B0000020C043F2BD00003000FEE71F4870472B
:1010C00030B45368D418042B0BDA002909D0057802
:1010D00025700578002D04D05B1C491E641C401C43
:1010E000F1E7536030BC704738B500290ED01D00C1
:1010F0001400FFF7E5FF616820006A6B904701224A
:10110000D243811A02D0491E02D004E0012000E03F
:101110000020C04332BD0021616032BD80B5DA6B72
:10112000904702BD80B5054BFFF7DEFF02BD80B5DD
:10113000024BFFF7F3FF02BD014870473C0000205F
:101140000400002000BFC9B200E0401C02788A42BF
:1011500002D0002AF9D100207047FEE780B50028B0
:1011600001D100BF07A006490B68002B03D0222243
:101170000021984701E000F08CFB222002BD000016
:1011800068030020636F6E73747261696E74206807
:10119000616E646C65723A20626164206D65737380
:1011A00061676500010000E0491C0A78002AFBD154
:1011B000081A7047C9B201E0401C521E002A03D031
:1011C00003788B42F8D170470020704780B5FFF755
:1011D00075FF006C02BDFEE7124207D08B0706D0F8
:1011E0000B78491C0370401C521EF7D870478307C8
:1011F00006D00B78491C0370401C521EF9D1704771
:1012000070B4103A03D378C9103A78C0FBD25307B0
:1012100001D318C918C001D508C908C0D20704D322
:101220000B880380891C801C002A01D50B78037071
:1012300070BC7047124224D0994228D970B500255D
:101240001B4202D00C00002109E0002401264918AD
:101250006441944200D3A41A7641F8D331000126A8
:1012600001E0764109D2001864416D41A41A9D4104
:10127000F7D2A4185D41B619F5D3300022002B0037
:1012800070BD1B42D8D108B500F008FB08BD01D1E4
:101290009042D3D202000B00002100207047F0B52D
:1012A0000E005E400125ED072E40B446AE0ADF1861
:1012B0004C18F44208D2F7420ED2640D01D07F0DD3
:1012C00012D100206146F0BD05D1F74201D87F0D53
:1012D00005D10020C143F0BDFBD1640DF9D0002041
:1012E000C143490549088FE0E419C902DB022943DB
:1012F0002B43DB0A460DC00231438E4630B487B221
:1013000095B27D432E0CADB2140C7C43A419260C6F
:10131000240425439CB27C43A419190C7943270C5F
:10132000C919A4B20F043C43090C000C97B24743FF
:101330002E0CBE193543ADB2170C4743360CBF19FE
:10134000A6B2BF193E043543240C3E0C36199FB299
:101350004743BF19BCB23E0C89191F0C47437F1885
:101360003E043443390C704680B297B247432E0C8A
:10137000BE193543ADB2170C4743360CBF19A6B2A0
:10138000BF193E043543240C3E0C36199FB2474327
:10139000BF19BCB23E0C89191F0C47437F183E048D
:1013A0003443390C77463F0C90B278432E0C8019A9
:1013B0000604ADB22E43050CA0B22D18120C7A43D0
:1013C0005019020C80B2240CA4189AB27A43121954
:1013D00014042043120C89181B0C7B43C91830BC21
:1013E000EF0A394203D1B61940414941641E6F12D8
:1013F000BF0DE41B0BDBFF19BC4211DA24050027EB
:101400004208AE417841614166463143F0BD641CFB
:1014100005D1401C6141CF0201D34908F4E750E7F0
:101420005DE730B4012464054D00EC420BD85D004B
:10143000EC4208D80C001C4364000443144304D25B
:10144000994200D1904230BC7047FCD08B42FAD117
:101450008242F8E730B4012464054D00EC420BD819
:101460005D00EC4208D80C001C43640004431443A4
:1014700004D28B4200D1824230BC7047FCD09942EA
:10148000FAD19042F8E7FEE7F4464A1805D200F098
:101490000FF801D580174008604700F009F80121D6
:1014A000C907884200D90800404260474A1812D252
:1014B000400DC90208430121C9070843520D4021CC
:1014C0000901521A521C06D452421F3201D4D04094
:1014D0007047C017704700207047FEE701004222A6
:1014E0001201D21E004207D002D4521E0018FCD5B1
:1014F000C10A400512058918704700000100EED5A9
:101500004042F446FFF7EBFF0122D2071143604748
:101510008B4200D1824205D98446100062468C4637
:1015200019006346DF184C18640D7F0D3AD0661C15
:10153000760537D0E61B352E34DCDB022B43DB0A85
:101540000C0DC9022943C912202E0DDB1700203EC5
:1015500006D01F00F741F3405F400026012A774183
:10156000C01871410DD217E01700F741F240574003
:10157000F3415A40B340F3405A4000268018594185
:101580000AD3A21C52050FD0C207012F72411700C7
:101590004008CB0718434908641C24054208AF41A2
:1015A00070416141F0BC7047641C21050020F9E7DF
:1015B0006B4010E06B40ABE7F742F3D1E943F1E752
:1015C0002442EFD100200021ECE7F0B40125ED0723
:1015D0000F005F40EED40C00871A9C4105D2C01B5F
:1015E000A141D219634169406B40AE0ADF184C1823
:1015F000F442E1D2640D7F0DE2D0E61B362ED1DC41
:10160000DB022B43DB0AA4460C0DC9022943C90A9D
:10161000012E28DC04D1D6075208DF073A435B08C5
:10162000EF0A76429041994114D039423BD1B61924
:1016300040414941761C394204D1761C0018494189
:101640003942FAD0B9436746B74208D9A41B2405EA
:101650002143A7E70042EAD13642E8D1A2E7E40AF3
:10166000E10700209EE7202E0BDD203E1F00F34007
:10167000F7415F40012A002257417E429841914143
:101680000BE01700F741F2405740F3415A40B34096
:10169000F3405A407E42904199410A0303D2641EAE
:1016A000B619404149410027641E24054208AE4155
:1016B00078416141F0BC7047F446002804D44942A7
:1016C00000F013F8404260474042002905D45FD043
:1016D00000F00BF8404249426047494200F005F8EB
:1016E0004942604703460B43E6D40022030A8B427B
:1016F0000BD203098B4219D243088B422ED2411AD6
:1017000000D20146524110467047FF2209023FD0E5
:1017100012068B4205D3121209028B4201D3121218
:10172000090203098B4219D300E0090AC3098B425D
:1017300001D3CB01C01A524183098B4201D38B01E3
:10174000C01A524143098B4201D34B01C01A524186
:1017500003098B4201D30B01C01A5241C3088B42CB
:1017600001D3CB00C01A524183088B4201D38B00B6
:10177000C01A524143088B4201D34B00C01A524158
:10178000884200D3401A5241CFD2014610467047DA
:1017900008B500F085F808BDF0B40E005E400125E4
:1017A000ED072E40B446AE0ADF184C18F4423BD287
:1017B000F74241D2640D43D07F0D38D0E41BC902FB
:1017C000DB0229432B43CF0ADB0A0600B61A9F41EE
:1017D00004D2641EB6197F41B6185F416812800DAD
:1017E00024180018844222DAE80C0021B6197F413F
:1017F000B61A9F4102D2B6185F413F1C4041494191
:10180000F4D3241C21DD2405B6197F41B61A9F416B
:1018100005D33743C60737430026012F7041614186
:1018200066463143F0BC7047FCD1F74205D2002038
:10183000C14349054908F3E704D00020C143F1E75B
:101840007F0DFAD000206146ECE72442FAD1401C1B
:1018500061410F03F6D30020E2E7FEE7094214D00E
:1018600088420FD30122030C01D10004120400238B
:1018700000185B418B4200D35B1A5241F8D3190028
:101880001000704701000020704708B500F008F80C
:1018900008BD80B5012000F005F801BD7047FEE7E6
:1018A0007047FEE780B500BF00BF024A1100182054
:1018B000ABBEFBE72600020038B5040014D02500BB
:1018C00068356878002803D12870200000F0C1FB3B
:1018D0002420687020680168012291430160200083
:1018E00000F061F9012801D1012032BD606A0028B1
:1018F00002D0200000F0F8F920684168374A0A4019
:101900004260206881682A2291438160FFE7206855
:10191000016801220A430260200000F049FA32BD4A
:10192000FEB505002F005037787E202848D10E00E4
:101930000BD0140009D0A86880214901884206D143
:101940002869002803D1F00701D50120FEBD387EAB
:10195000012835D00193012038760020F86121203C
:10196000787600F0EBFB3C807C803400060005E0DC
:101970002088C005C00D29680885A41C7888002827
:1019800020D07888401E7880019800903300002293
:101990008021280000F04CFA00281DD1A868802181
:1019A0004901884202D128690028E1D020782968BD
:1019B0000885641CE2E72020787600203876FEBD9A
:1019C0000220FEBD28000199330000910022402131
:1019D00000F02EFA0028EED00320FEBDFFB7FFFF77
:1019E00070B5030058339C7C202C41D100290BD0CA
:1019F000140009D0856880267601B54206D10469B5
:101A0000002C03D1CC0701D5012070BD1C7C012C1A
:101A10002ED001241C7441651A805A80FF21B542E2
:101A200004D10269002A11D112490FE07F22002D52
:101A300003D10569002D06D108E021078D4206D1AA
:101A40000169002901D19A8001E03F21998000219C
:101A5000596122229A74197401688A6814438C604F
:101A600000680168902252000A430260002070BDA5
:101A7000022070BDFF01000070B504002368D86922
:101A8000196805072D0F07D1820605D58A0603D5EB
:101A9000200000F078FA70BD9A68002D63D001250F
:101AA0002A4203D1902676000E405CD0C60705D5A9
:101AB000CE0503D51D62E36E1D43E56604230225B2
:101AC000860706D5D60704D526683562E66E1E431E
:101AD000E666460706D5D60704D526683362E36E68
:101AE0001D43E5660825030708D58B0601D4D207F8
:101AF00004D522681562E26E2A43E266E26E002A8D
:101B000050D0800604D5880602D5200000F03BFAAC
:101B10004026E06E054003D12068806830401CD02C
:101B2000200000F0B9F9206881680E4011D081686A
:101B3000402291438160606E00280AD06949416368
:101B4000606E00F001FB00282CD0606E416B88476E
:101B500070BD200000F01CFB70BD200000F018FBE1
:101B60000020E06670BDC5020DD552020BD5802065
:101B7000400318622000693020210170417020006C
:101B800000F008FB70BD020605D50A0603D520004B
:101B900000F0B8F970BD400604D5480602D5200013
:101BA00000F0E4F970BDF8B5040010220020002513
:101BB00026683168994F0F40A168394327690F4360
:101BC00061693943E7690F43376077689449394061
:101BD000E7680F437760B76892493940A7690F43B8
:101BE000216A3943B1609049904FBE4208D10968DB
:101BF0008907890F22D0022918D015D3032910E0B4
:101C0000A44FBE4214D10F68C0218902394015D0BB
:101C10001703B94208D05703B94207D0C027BF0203
:101C2000B9420CD102220AE0042208E0082206E0B0
:101C3000A0498E4202D0A0498E4200D100228023CA
:101C40001B02E7699F4225D1002A06D0022A07D04D
:101C5000042A09D0082A0DD013E000F09EFD05E00B
:101C600061684808954A08E000F06CFD6168400032
:101C70004A0802E0616848085A008018FFF7EEFD44
:101C800000E001258E4901400004400C4007400F50
:101C9000084318E0002A06D0022A07D0042A0AD0F6
:101CA000082A13D01AE000F078FD06E061684808C1
:101CB000844A80180DE000F045FD61684A088018EC
:101CC000FFF7CCFD80B22168C86008E06168480871
:101CD000C018FFF7C3FD80B2F06000E001252800C6
:101CE000F2BD0000F11E00082421415CC90706D5A1
:101CF00001684A68744B1340826A1A434A6024217F
:101D0000415C890706D501684A68704B1340C26A76
:101D10001A434A602421415C490706D501684A6894
:101D20006B4B1340026B1A434A602421415C090744
:101D300006D501684A68674B1340426B1A434A60F4
:101D40002421415CC90606D501688A68624B1340AC
:101D5000826B1A438A602421415C890606D501689A
:101D60008A685E4B1340C26B1A438A602421415C2F
:101D7000490611D501684A68594B1340026C1A4351
:101D80004A60026C80235B039A4205D14A68554B36
:101D90001340426C1A434A602421415C090606D56F
:101DA00001684A68504B1340806C18434860704784
:101DB000F8B5040000256830456000F0BFF9070061
:101DC00020681A49884202D0324988421DD1474EC4
:101DD0000068000709D500963B0000228021890396
:101DE000200000F025F800280DD120680068400789
:101DF0000BD500963B0000228021C903200000F093
:101E000017F8002801D00320F2BD210068312020FE
:101E1000487088700D700020F2BD0000F369FFEF7C
:101E2000FFCFFFFFFFF4FFFF3010024000380140FA
:101E3000FEB5089E0092002405000F00019328685B
:101E4000C0693840B84201D1012000E0002000996B
:101E500088421DD10020C0438642F0D0002E05D01C
:101E600000F06CF90199401A8642E8D228680168AE
:101E7000614A0A40026028688168012291438160BA
:101E80002800683020214170817004700320FEBD5D
:101E90000020FEBD0044004001680A68574B134013
:101EA0000B6001688A6801239A438A6020216A22B4
:101EB0008154704700480040004C00400024F4006A
:101EC000F0FF000000127A00FFFFFDFFFFFFFEFFA2
:101ED000FFFFFBFFFF7FFFFFFFEFFFFFFFDFFFFFC6
:101EE000FFFFEFFFFFFF9FFFFFFFF7FFFFFFFF0178
:101EF00080B5406A0100523100220A810A8000F058
:101F000047F901BD01005231CA7D212A2CD152224C
:101F1000825A002A0AD101680A6880239A430A601B
:101F20000068016840220A4302601BE08268802347
:101F30005B019A420CD10269002A09D1C26C128855
:101F4000D205D20D03681A85C26C921CC26405E0EA
:101F5000C26C531CC364127803681A855222805ADB
:101F6000401E0880002070470220704780B501683D
:101F70000A6840239A430A6020216922815400F0B4
:101F80003FFC002002BD38B501005A314A88036881
:101F90000C7C222C2AD19B8C846880256D01AC425C
:101FA00009D10469002C06D11A40436D1A80426D94
:101FB000921C426504E0446D651C45651A40227020
:101FC0005A22825A521E0A8012040DD102681368E6
:101FD0000A4C1C401460026893680124A343936078
:101FE00020220A7400F06CF8002032BD98690821A4
:101FF00001439961022032BD5FFEFFFFDFFEFFFF5C
:1020000010B53E4C3E482060E12040026060002058
:10201000A060E06020610C216161A061E06120624C
:1020200060622000FFF748FC002804D04C2100BF6C
:1020300037A000F041FC002203211B2000F063FCCC
:102040001B2000F064FC01222E492000FFF7C8FC91
:1020500010BD00682A49884200D0704780B586B01C
:102060008020C00128490A6802430A6009680840C4
:1020700000900098C0200190022002900020039060
:1020800003210491059001A9204800F075FC07B0D8
:1020900000BD0EB418B5020003AB184C652120003A
:1020A000703000F047FDFA239B0082B221007031AE
:1020B0002000FFF735FC01B0019810BC04B00047C8
:1020C00001680E4A1268914200D0704738B50D4938
:1020D0000A784B6ACC182271E5780D2D07D10A2AAF
:1020E00005D10020E07001224A70486231BD5B1CBE
:1020F0004B620122FFF774FC31BD00008400002018
:10210000003801403C030020181002400004004841
:10211000443A5C4F6E6544726976655CE697A0E66A
:10212000849FE697A0E588B75C736F757263655C02
:102130005372635C75736172742E630001480068AA
:10214000704700BF6403002070B500220024012105
:102150002123C35C022B03D004228263012415E0F7
:1021600003681D680E26B5431D6003681D688D4316
:102170001D60036C01259D40C36B5D602123C1542C
:1021800020214254416B002900D08847200070BDB7
:102190007047FEE77047FEE7F1B582B0914C0078DA
:1021A000C00700D435E10C218025AD0260680840ED
:1021B00004280AD068086268114008290ED16168B5
:1021C000C02252020A40824208D12068054034D021
:1021D00002984068002822D10120FEBD02994A6879
:1021E000012A09D08049814B002A09D0052A07D14C
:1021F000216882000A43226021680843206005E0CC
:1022000020680340236020680140216002984068F4
:1022100000280DD0FFF792FF06002068284000D06C
:10222000F7E0FFF78BFF801B6528F6D30320FEBD88
:10223000FFF784FF06002068284000D1E9E0FFF79F
:102240007DFF801B6528F6D3F0E7FFF777FF801B43
:10225000022800D813E1E9E70298C0680028206846
:102260000FD0012101432160FFF768FF06002068BD
:10227000800700D5EBE0FFF761FF801B0228F6D94D
:10228000D4E7012188432060FFF758FF02270600AA
:102290002068384000D1E1E0FFF750FF801B0228A2
:1022A000F6D9C3E7012188436062FFF747FF0227A1
:1022B0000600606A384000D1E5E0FFF73FFF801B71
:1022C0000228F6D9B2E70420C0430122D2430029F4
:1022D0000AD0052908D1206A042101432162206A1D
:1022E00001210143216205E0216A0A402262216A3C
:1022F000084020620298806800280FD0FFF71EFF78
:10230000B74900910600206A800700D5EAE0FFF790
:1023100015FF801B00998842F5D387E7FFF70EFF72
:10232000AF4900910600206A800700D4DAE0FFF789
:1023300005FF801B00998842F5D377E7FFF7FEFE83
:10234000801B022800D8E9E070E7FFF7F7FE801B4A
:10235000022800D81AE169E70421C9438842606B6A
:1023600002D101406163DDE0042101436163606BE0
:10237000012188436063FFF7E1FE02270600606BDE
:10238000384000D1D5E0FFF7D9FE801B0228F6D9EE
:102390004CE70298006A002811D080277F02606B0A
:1023A00038436063FFF7CAFE0600606B384000D018
:1023B000D9E0FFF7C3FE801B0228F6D936E7606B31
:1023C0000A4901406163FFF7B9FE80277F020600DA
:1023D000606B384000D1C6E0FFF7B0FE801B0228DA
:1023E000F6D923E700100240FFFFFBFFFFFFFEFFCF
:1023F00001402160FFF7A2FE8027BF04060020688D
:10240000384000D1EAE0FFF799FE801B0228F6D998
:102410000CE70C2502200299096801401ED0F8271C
:10242000FF43616829400AD061682940082904D126
:1024300061686A030A4081038A4200D00CE7216880
:10244000084004D00298C068012800D0C4E6206883
:10245000074002980069C000384320600298007865
:10246000000710D50298C0690028606A00D119E7FA
:10247000012101436162FFF761FE02270600606AE5
:10248000384000D1E1E602980078400730D50027B7
:1024900080204005E169014007D1E1690143E16124
:1024A000E1690840009000980127A4480068C00531
:1024B00011D4A2480168820D0A430260FFF73EFE74
:1024C00006009E480068C00505D4FFF737FE801B54
:1024D0006528F6D3AAE602988168012900D0F2E6C1
:1024E000206AFEE6002F03D0E06995490140E161D2
:1024F00002980078C0061CD502984069F827FF436F
:10250000012800D028E7606B042101436163606B00
:10251000012101436163FFF711FE0600606B800734
:1025200000D40BE7606B074002988069C000384315
:10253000606302980078800615D5606828400C28F2
:1025400009D060682840082803D168036168014009
:10255000814200D01DE7606BC00304D50298006A79
:10256000012800D038E60298406A002836D0616819
:102570000D40082D00D12FE68D490228206800D09B
:1025800036E701402160FFF7D9FD06002068800191
:1025900000D5DAE6E06A0F2188430299096B01430E
:1025A000E1626068834901400298C06A0843029969
:1025B000896A0143616020688021490401432160E8
:1025C000FFF7BCFD06008025AD042068284005D13A
:1025D000FFF7B4FD801B0228F7D927E60020FEBDD7
:1025E00089130000F2B582B00127FF43012473492B
:1025F00009682140029A91420AD270490A683A4019
:10260000029B13430B6009682140029A914222D138
:102610000090694D022000990968014006D0696860
:10262000F0229143009A92680A436A60009909680F
:10263000214066D000994968012902D128688003A9
:1026400008E0022902D12868800103E0032903D1B0
:10265000686BC00303D464E02A68104061D06868E6
:102660000322904301436960FFF768FD060000986C
:1026700040685349019101280CD168680C21014040
:1026800004293ED0FFF75AFD801B01998842F4D3FC
:102690000320FEBD02280BD168680C2101400829E7
:1026A0002FD0FFF74BFD801B01998842F4D3EFE751
:1026B0000191032837D168680C2101400C2920D0F2
:1026C000FFF73CFD801B01998842F4D3E0E70098B6
:1026D0000078400706D568683A4901400098C0680C
:1026E0000843686000F02EF837496A681206120F36
:1026F000895CC84035490860002000F03BFA0020A2
:10270000FEBD2E480299026822409142DFD2016844
:102710000F400299394301600068044002988442E6
:10272000D5D00120FEBD68680C210140E9D0FFF73B
:1027300005FD801B01998842F5D3A9E70070004090
:10274000FFFFFFEFF0B522490B682248224A0C2414
:102750001C40082C02D00C2C1AD0F0BD0F2500BF55
:102760001FA49E0C2E40A45D21A6896A0D40715DB8
:10277000C0256D022E001E4080277F02BE4203D07E
:102780002B40AB4200D11000FFF768F86043F0BD6A
:102790001000F0BD0D48006870470C4800680F49F4
:1027A0000B4A12685205520F895CC84070470000FE
:1027B000FFFFFFFEFF7FC2FF00100240002002402B
:1027C00089130000FFF8FFFF403F000800000020D1
:1027D0000410024000127A00006CDC02E4400008A1
:1027E00002030405060708090A0B0C0D0E0F101052
:1027F0000102030405060708090A0B0C0D0E0F1051
:102800007047FEE780B500F0C7F900F017F800F058
:10281000D3F900F005FA00F081FA00F0DDFA00F0DB
:1028200029FB00F093FB00F0C5FBFFF7E9FB00F08C
:102830000FFC00BF21A0FFF72CFCFEE770B598B09D
:1028400011200B9001240C9410941020119002265A
:1028500014960003159000011690002517950BA8FB
:10286000FFF79AFC002800D0FEE7072000900196B1
:102870000295039501216846FFF7B4FE002800D0B9
:10288000FEE70494069504A800F08EFC002800D012
:10289000FEE7FFF77FFFFA218900FEF7DFFF00F078
:1028A0003DF8042000F04EF8002200210020C04333
:1028B00000F029F818B070BDFEE7000068656C6C88
:1028C0006F2C776F726C64210D0A000018B5C2007E
:1028D00018231340FF249C40E2438907090E9940C6
:1028E000030007D51D4B0007000F08388008800043
:1028F000181803E01A489B089B00C01803681A4088
:102900001143016011BD80B5FFF7E0FF01BD01215A
:10291000C006C00E814013480160704710B5401ECC
:1029200080214904884201D3012010BD0E4C606013
:1029300003210020C043FFF7C9FF0020A06007214A
:10294000216010BD08490428086803D1042202430D
:102950000A60704704229043086070471CED00E055
:1029600000E400E000E100E010E000E080B500F0ED
:1029700001F801BD7047FEE7F0B585B00A000023FD
:102980000F210491010031E0052403E062488142F7
:10299000FAD10424AC403443029804605F480568CF
:1029A000019EF44325405668F60302D52E00019D92
:1029B00035430560456825405668B60302D52E00AC
:1029C000019D35434560856825405668F60202D56D
:1029D0002E00019D35438560C5682C405568AD02C9
:1029E00002D52500019C2C43C4605B1C10680400C8
:1029F000DC4000D186E0012401259D40039505407F
:102A0000019501980028F0D068469D0045705068F7
:102A1000022801D0122811D1D80880000D18286A88
:102A20006E4677781C263E40049FB740B84317692E
:102A3000BC4637006646BE4006432E620D686846B7
:102A40005E00067003206E4637780326BE40F743CB
:102A500002973E462E40556805406F463F78BD4080
:102A600035430D605568012D05D0022D03D0112D81
:102A700001D0122D11D18E68029D3540D6686F4667
:102A80003F78BE402E438E604D68039EB543566826
:102A9000360926409E402E434E60CE68029D35404A
:102AA00096686F463F78BE402E43CE605568ED0075
:102AB0009BD51B4D2E6826432E602D682540029520
:102AC000029D184D9E08B600AD1902952E686D4600
:102AD0006F780C253D40049FAF40BE439027FF0513
:102AE000B94201D1002455E70F4FB942FBD00F4C3A
:102AF000A14201D102244DE70D4CA14200D045E78F
:102B0000032447E705B0F0BD81B0002A01D0816100
:102B100000E0816201B070470010004800040140ED
:102B20001810024008000140000400480008004856
:102B3000000C00481CB584B000240394002902D185
:102B40000194029402E00190491E0291009405ABA9
:102B500001A9074878441830FDF7B2FA0199002915
:102B600000D00C70002800D4039806B010BD00BF40
:102B70000F15000010B50400FFF70CFEFA218900C4
:102B8000FEF76CFEFFF7CAFE002221000020C043C2
:102B9000FFF7B9FE002010BD80B50648016810227D
:102BA0000A4302600020FFF7E5FF00F09BFB0020D6
:102BB00002BD00000020024010B586B08021C9038C
:102BC000164802680A4302600268114000910099A9
:102BD0008021890202680A43026002681140009164
:102BE00000998021C90202680A430260006801401E
:102BF000009100989024E40500224C212000FFF76A
:102C000083FF4C200190012002900020039004904B
:102C100001A92000FFF7B0FE06B010BD141002405D
:102C20007FB5304C3048206000206060A060E060DC
:102C30000121216104256561A061E061206260627B
:102C4000FF22C232A262E0622063616328A62000F4
:102C500000F070FB002803D04A213000FFF72CFE63
:102C60000095A8020190000402906946200000F03F
:102C70001BFC002803D054213000FFF71DFE052067
:102C800000906946200000F00FFC002803D05C2172
:102C90003000FFF711FE7FBD00681349884200D065
:102CA000704780B586B0480D10490A6802430A6033
:102CB000096808400090009830200190032002909D
:102CC0000020039001A99020C005FFF755FE0022C7
:102CD00001210C20FFF717FE0C20FFF718FE07B0AC
:102CE00000BD0000C0010020002401401810024077
:102CF000443A5C4F6E6544726976655CE697A0E67F
:102D0000849FE697A0E588B75C736F757263655C16
:102D10005372635C6164632E6300000080B52048D9
:102D2000204901600421416000218160C160C0220E
:102D3000D2020261D200426181610122C26101625C
:102D400041628162C16200F045FC002803D0452148
:102D500016A0FFF7B1FD01BD00681249884200D0FE
:102D6000704780B586B0802080040F490A6802430E
:102D70000A600968084000900098C0204001019056
:102D8000022002900020039003200490042005906C
:102D900001A99020C005FFF7EFFD07B000BD0000BE
:102DA0000C020020006400401C100240443A5C4FBA
:102DB0006E6544726976655CE697A0E6849FE69747
:102DC000A0E588B75C736F757263655C5372635C72
:102DD00063616E2E6300000080B5184818490160D9
:102DE0006021416000218160C160016141618161B8
:102DF000C161016200F092FC002804D0422100BFB2
:102E000011A0FFF759FD01BD00680D49884200D0AF
:102E1000704718B585B00320009001900020029003
:102E20009024E40569462000FFF7A6FD30200090BD
:102E300069462000FFF7A0FD06B010BD100300207A
:102E40001C00014070470000443A5C4F6E654472BC
:102E50006976655CE697A0E6849FE697A0E588B76B
:102E60005C736F757263655C5372635C636F6D70E6
:102E70002E63000080B52648264901608221490062
:102E8000416000218160C0229200C2600161416105
:102E900081612022C2610162416281620722C262B5
:102EA00001630821416300F09BFC002803D0472107
:102EB0001BA0FFF701FD01BD00681649884200D044
:102EC000704770B586B0880C13490A6802430A60DF
:102ED00009680840059005988020000200900226AD
:102EE00001960024029403250395049469469020DA
:102EF000C005FFF741FD382000900196029403952C
:102F0000049469460548FFF737FD06B070BD000020
:102F10005C0100200030014018100240000400480D
:102F2000443A5C4F6E6544726976655CE697A0E64C
:102F3000849FE697A0E588B75C736F757263655CE4
:102F40005372635C7370692E6300000070B586B0C5
:102F5000814C8020C005206000256560A560E5608B
:102F60002561A56185A6200000F0C4FC002803D0DF
:102F700043213000FFF7A0FC009501956946200031
:102F800000F044FF002803D04A213000FFF794FCF2
:102F9000029501200390049505950C2202A92000BA
:102FA00000F0B7FC002803D053213000FFF784FC69
:102FB00006B070BD78B589B0684C694820600025BE
:102FC0006560A5606748E0602561A5616BA620008B
:102FD00000F081FC002803D065213000FFF76CFC75
:102FE000009501956946200000F010FF002803D0ED
:102FF0006C213000FFF760FC60200290039504957F
:103000000695042202A9200000F012FD002803D03A
:1030100075213000FFF750FC082202A9200000F0C3
:1030200007FD002803D07A213000FFF745FC0C2271
:1030300002A9200000F0FCFC002803D07F21300012
:10304000FFF73AFC200000F066F80AB070BD0000FF
:103050007CB5454C454820602F2060600025A56068
:103060004348E060A56100BF44A6200000F018FCC2
:10307000002803D091213000FFF71EFC0095019538
:103080006946200000F0C2FE002803D098213000DD
:10309000FFF712FC73BD00688021C905884200D08B
:1030A000704780B586B0012032490A6802430A6041
:1030B00009680840009000988020000101900220DB
:1030C0000290002103910491059001A92A48FFF77D
:1030D00053FC07B000BD81B000682149884208D187
:1030E000022024490A6802430A60096808400090E7
:1030F000009801B0704781B000681C49884208D12F
:1031000020201C490A6802430A60096808400090B0
:10311000009801B0704700681149884200D070479C
:1031200078B585B080200090022601960024029494
:1031300003940125049569469020C005FFF71CFC07
:1031400003200090019602940394049569460A486E
:10315000FFF712FC06B070BD500200209002002064
:1031600000040040B70B0000D00200200014004013
:10317000FFFF00001C10024000040048443A5C4F6E
:103180006E6544726976655CE697A0E6849FE69773
:10319000A0E588B75C736F757263655C5372635C9E
:1031A00074696D2E63000000FEB50700464C386858
:1031B000C00359D5002000908020400521680140BF
:1031C00008D12168014321602168084000900098DF
:1031D000012000903D4E3068C00517D43068A10D25
:1031E00001433160FEF7AAFF05003068C0050DD429
:1031F000FEF7A4FF401B6528F7D30320FEBDFEF7B2
:103200009DFF401B019988421FD3F6E7C020800034
:10321000616801402E4A1600002919D07A681040D2
:10322000814215D0606830406168802252020A43B2
:1032300062606168274A0A4062606060C00707D523
:10324000FEF77CFF24490191050060688007D6D510
:10325000606806407868304360600098002803D0BA
:1032600020681E49014021603878C00705D5606993
:1032700003218843B968014361613878800705D527
:10328000606917490140F868084360613878800632
:1032900005D5606910218843396901436161386847
:1032A000800305D5606980218843B9690143616164
:1032B0003868400505D56069402188437969014334
:1032C00061610020FEBD00001C1002400070004043
:1032D000FFFCFFFFFFFFFEFF89130000FFFFFFEF72
:1032E000FFFFFCFF80B5012011490A6802430A6014
:1032F0000A68104000900098802040054A68024308
:103300004A6049680840009000980022002104208B
:10331000C043FFF7F8FA002200210120C043FFF765
:10332000F2FA002200210020C043FFF7ECFA01BDB1
:1033300018100240F8B504000025002C01D101202E
:10334000F2BD260040367068002804D1B0603070AD
:103350002000FFF7A1FC10227068104003D1206804
:10336000042183680B4000D092E077684B4B3B40D0
:1033700002271F43776083689B079B0F012B05D1B2
:103380000368DB070FD4C3681B040CD4C368182779
:10339000BB43A7681F43C760206803699B009B0865
:1033A00067681F4307612068C3683D4F1F40C760BF
:1033B000606B012801D0880200E000202369022B05
:1033C00000D00021236A0093A3699B03E769FF03F0
:1033D0001F43009B5B033B431843E36803431943CC
:1033E000206B40000843616A01290ED10099002931
:1033F00003D101001003084307E0716820230B4349
:103400007360B16801230B43B360A16AFF23C23329
:10341000994203D00300E06A084318432168CB684F
:103420000343CB60A16B130699420DD001290BD049
:10343000022909D0032907D0042905D0052903D082
:10344000062901D007290CD121684B690727BB4306
:103450004B6121684B693827E75D7F077F0F1F436A
:103460004F610221C94301232468E4680D4F2740BE
:10347000874205D1B560706801400B4373600BE073
:10348000706801400A437260B0681843B06002E09F
:1034900070680243726001252800F2BDFFFEFFFF45
:1034A0001902FEFFE7FF3F83F8B504000025002660
:1034B00000954020205C012801D10220F2BD0122AC
:1034C0004023E25423689868400769D40091086853
:1034D000824039484968394FB942996A4DD00A4308
:1034E0009A62A16B80225205914221D001291FD0FE
:1034F00002291DD003291BD0042919D0052917D072
:10350000062915D0072913D02168009A92684B69C3
:103510005B075B0F9A420BD04A6907239A434A61C3
:1035200021684A69009B1B7A5B075B0F13434B6161
:103530000099096810291AD011291BD0122936D1F7
:103540008021490402681143016000980068102836
:103550002DD11B4800681B49FEF780F90A2148431A
:1035600000900098002822D00098401EF8E78021A3
:103570000904E7E78021C903E4E7914399620099D0
:103580000968102908D0112908D012290FD10E4935
:103590000268114001600AE00C49F9E70C49F7E7BD
:1035A00020004030416820230B4343600126402027
:1035B00025543000F2BD0000082701400110000032
:1035C0000000002040420F00FFFFFFFEFFFF7FFFD3
:1035D000FFFFBFFFF8B5050000D183E000243D20C8
:1035E000285C002804D13C216C542800FFF7B4FB70
:1035F00002203D216854286801680222914301603D
:1036000028680127016839430160FEF797FD06002D
:1036100028684168394067D1FEF790FD801B0B2870
:10362000F6D300F074F8802291430160E869012824
:103630002868016803D140220A43026002E0402268
:1036400091430160286A01282868016803D120227B
:103650000A43026002E0202291430160686A012867
:103660002868016803D110220A43026002E0102298
:1036700091430160A86A01282868016803D10822E3
:103680000A43026002E0082291430160E86A0128CF
:103690002868016803D104220A43026002E0042280
:1036A00091430160A868E968014328690843696992
:1036B00001436868401E08432968C861286801689A
:1036C000B9430160FEF73AFD0600286841683940B9
:1036D00015D0FEF733FD801B0B28F6D3A1E704209D
:1036E0003D2168540120F2BD41683940F7D0A969F5
:1036F0000129016897D180220A43026096E7406859
:103700003840ECD12C643D202F540020F2BD032022
:103710003D2168543C202C540320F2BDFEB504002A
:103720000027002500970126002C03D02820205CCC
:10373000C00601D5012534E0244801683143016009
:1037400000683040019001982000FFF75DFBA06AFF
:10375000002801D1242027540220A06220681C499F
:10376000884201D110200090891E0868194A009BE8
:103770009A4090436268A3681343E2681A4323693E
:10378000134367691F43A2693A43009B9A4002436F
:103790000A60E069002803D00868F20502430A6065
:1037A000A6622800FEBD80B501680B4A914202D195
:1037B0008021890301E08021C903084A13680B4076
:1037C00002D01160FFF73EFB01BD0000181002405F
:1037D0001E0001407E3F00001C0001401404014017
:1037E000F8B5040001D10120F2BD0025A5625C30CE
:1037F0004078002804D15C2165542000FFF75CFB71
:1038000020005C300223437021680A684026B243DE
:103810000A60E1680091E026F600B14206D9002175
:10382000009AF0273F01BA4204D104E0D902009A7D
:10383000B24200D0A5620122276B002F05D1009F64
:10384000B74201D9236300E022636368A6681E4380
:103850002769374363693B43A66957023E401E43CD
:10386000E3693343266A1E43A36A33432668336001
:10387000A3691B0C04263340666A1E43636B334303
:10388000E6681E433143236859602168CB69034CC5
:103890001C40CC61456042700020F2BDFFF7FFFF85
:1038A00010B5040001D1012010BD3D20205C00288E
:1038B00004D13C2160542000FFF71DFCFFE70220EB
:1038C0003D216054211D206800F02CF901203D218C
:1038D0006054002010BD10B5040001D1012010BDBE
:1038E0003D20205C002804D13C2160542000FFF7DB
:1038F000F2FBE4E710B5040001D1012010BD3D202A
:10390000205C002804D13C2160542000FFF7C3FB59
:10391000D5E7FEB505003C20285C012801D1022036
:10392000FEBD0C0001203C21685402203D2168545A
:103930000C27FF43002A0DD1E368626821682868DC
:1039400000F006FA286881690F408761286881695C
:10395000A26810E06B4E042A10D1E3686268216807
:10396000286800F01BFA286881690E408661286883
:103970008169A26812020A43826152E0082AE06863
:10398000019060680090206829680A6A22D15E4B25
:1039900013400B62CB690A6A0326B343009E1E43A1
:1039A000F0239E43B446019B1E01F023334066463C
:1039B0003343CB61554B13400002A0221201024059
:1039C0001A430A622868C1690F40C7612868C16943
:1039D000A26824E04E4B13400B62CB690A6A4D4F3C
:1039E0001F40009B1B023B434B4F1F40BC46019BAB
:1039F0001F03F0231B023B4067463B43CB61474B11
:103A000013400003A022120202401A430A622868EF
:103A1000C1690E40C6612868C169A26812020A43E2
:103A2000C26101203D21685400203C216854FEBD44
:103A3000F8B504003C20205C012801D10220F2BD31
:103A40000D0001203C21605402203D216054344F80
:103A50008602002A06D0042A16D0082A27D00C2A6B
:103A600037D048E02900206800F09BF82068816981
:103A700008220A438261206881690422914381619E
:103A8000206881692A690FE02900206800F0C3F8E6
:103A9000206881690E438661206881690F408761D3
:103AA000206881692A6912020A43826123E02900A1
:103AB000206800F0E4F82068C16908220A43C26166
:103AC0002068C16904229143C1612068C1692A69E3
:103AD0000FE02900206800F007F92068C1690E4353
:103AE000C6612068C1690F40C7612068C1692A6941
:103AF00012020A43C26101203D21605400203C2192
:103B00006054F2BDFFF3FFFFFFFEFFFFFFF5FFFF75
:103B1000FFEFFFFFFFFCFFFFFF0FFFFFFF5FFFFF58
:103B2000FFFBFFFFF8B502686E4B844C8025ED0566
:103B3000834EB04203D0A84201D0A04208D17027E2
:103B4000BA4317004A683A43B0420ED0A8420CD09C
:103B5000A0420AD07B4CA04207D0984205D07A4CB4
:103B6000A04202D08C4CA04203D1784C1440CA68C9
:103B700022438024A2434C69144304608A68C262D1
:103B80000A688262B04207D0984205D06E4A9042DD
:103B900002D0814A904201D109690163012141614A
:103BA000F1BDF8B5026A01239A430262046A4268D1
:103BB00083697325AB430D681D43009502239C4325
:103BC0008B682343604C474D5D4EB04206D0A842FF
:103BD00004D0A04202D0704FB8420CD10827BB439A
:103BE0001F00CB683B430427BB43B04206D0A8422A
:103BF00004D0A04202D0684CA04205D1754C1440BC
:103C00004D6925438A692A434260009A8261496866
:103C100041630362F1BD70B5026A10239A430262E8
:103C2000026A436884696A4D25400C6824022C436B
:103C30002025AA438D682D011543414A904208D1A1
:103C4000802295432E00CA681501354340229543D2
:103C500008E0244A904205D03B4A904202D04E4AA6
:103C6000904206D15C4A1A404B698E691E43B300EC
:103C700013434360846149688163056270BD70B518
:103C8000026A564B13400362046A4268C569732393
:103C90009D430B682B43524D25408C6824022C43D6
:103CA000274DA84207D14F4D2540CC6826022E4310
:103CB0004D4C344008E00B4DA84205D0224DA8429F
:103CC00002D0354DA84206D1484D15404A698E694B
:103CD000164332012A434260C3614968C1630462EA
:103CE00070BD00000040014030B5026A404B1340F7
:103CF0000362036A4268C469354D25400C6824029A
:103D00002C433C4D1D408B681B032B430C4DA8429C
:103D100008D0394DA84205D00B4DA84202D01E4D07
:103D2000A84204D1354D15404A6992012A434260A8
:103D3000C46149680164036230BD000000040040B2
:103D4000002C01400020004000440140FFFCFFFF28
:103D500070B5046A0125AC4304628569046A284E83
:103D6000B04209D08026F605B04205D0254EB042BB
:103D700002D0214EB04202D10326B54300E0012219
:103D80002A43F025AA431B011D40154385610A22E1
:103D9000944319E0000000000048014070B5046A37
:103DA0001025AC4304628569046A0A4E2E40120253
:103DB0003243154D15401A03F0231B0213402B43C9
:103DC0008361A022944309010A402243026270BD2C
:103DD000FF8CFFFFFFFCFFFFFFF3FFFFFFFEFFFF76
:103DE000FFFDFFFFFFF7FFFFFFFBFFFFFFCFFFFF21
:103DF000FFEFFFFFFFDFFFFF00400140FFBFFFFFBE
:103E0000002C014000040040FF0FFFFF70B53C2272
:103E1000825C012A01D1022070BD02003C320123E4
:103E2000137002243D254455046865687026B54327
:103E30006560046865680E682E4366600468A5685E
:103E40008026B543A5600468A56849682943A16038
:103E5000FFE73D2143540020107070BD00127A002E
:103E6000EC400008EC400008EC400008EC40000882
:103E7000EC400008EC400008EC400008FFFFFFFFAA
:103E8000FFFFFFFFEE400008EC400008EC40000898
:103E9000FFFFFFFFFFFF0000F040000801000000EF
:103EA00004000020000000000000000000000000EE
:103EB0000000000000000000000000000000000002
:103EC000000000000000000000000000AB400008FF
:103ED000000000009B4000080100000000000000FE
:103EE0001148016801220A43026041680F4A0A40F2
:103EF000426001680E4A0A40026001680D4A0A40A9
:103F0000026041680C4A0A404260C16A0F22914334
:103F1000C162016B094A0A400263416B012291436D
:103F20004163002181607047001002400CB8FF0817
:103F3000FFFFF6FEFFFFFBFFFFFFC0FF2CFEFCFFB5
:103F40000000000000000000010203040607080949
:103F500070B40123002413E00168001D194202D04F
:103F60004D466D1E49190C60091D121F042AFAD214
:103F70000D00960701D50C80AD1C1A4000D02C70A6
:103F80000268001D002AE7D170BC70477047FEE749
:103F90007047704780B500F011F8FEF7E7FC01BDEF
:103FA00080B50448FFF7FFFB01BD80B50248FDF76F
:103FB00063FD01BD10030020840000200248016859
:103FC000491C0160704700BF6403002030B4012227
:103FD0000168001D00290FD00368C3184468083029
:103FE000144202D04D466D1E64191D6825601B1DCC
:103FF000241D091FECD0F8E730BC704710B5074905
:1040000079441831064C7C44163404E0081D0A68D3
:10401000891888470100A142F8D110BD08000000AE
:10402000280000002DFFFFFFE802000084000020B0
:104030000000000099FFFFFF8400000020FEFFFF4A
:10404000000000200000000000F00DF8002801D062
:10405000FFF7D4FF00BF00BF002000BF00BFFEF786
:10406000D1FB00F002F80120704780B500F002F8A3
:1040700001BDFEE707463846FDF714FCFBE7826802
:10408000521C82604268002A06D00268531C0360FA
:1040900011704168491E41607047FF2902D9002014
:1040A000C04370470170012070470078401E804176
:1040B000C043C00F7047FEE76E616E004E414E0078
:1040C000696E6600494E4600014880470148004736
:1040D000E13E0008D940000800BF00BF00BF00BF9C
:1040E000FFF7B2FF000000000102030400002E00F1
:1040F0004300FEE7FEE7FEE7FEE7FEE7FEE7FEE73A
:10410000FEE7FEE7FEE7FEE7FEE7FEE7FEE7FEE787
:02411000FEE7C8
:04000005080040D9D6
:00000001FF
